:020000040800F2
:1000000090060020CD010008750500086D05000868
:10001000710500087F020008AD0B00080000000019
:10002000000000000000000000000000F5060008CD
:100030002D04000800000000FD0500080908000864
:10004000E7010008E7010008E7010008E7010008F0
:10005000E7010008E7010008E7010008E7010008E0
:10006000E7010008E7010008E7010008E7010008D0
:10007000E7010008E7010008E7010008E7010008C0
:10008000E7010008E7010008E7010008E7010008B0
:10009000E7010008E7010008E7010008E7010008A0
:1000A000E7010008E7010008E7010008E701000890
:1000B000E7010008E7010008E7010008E701000880
:1000C000E7010008E7010008E7010008E701000870
:1000D000E70100086D080008E7010008E7010008D3
:1000E000E7010008E7010008E7010008E701000850
:1000F000E7010008E7010008E7010008E701000840
:10010000E7010008E7010008E7010008E70100082F
:10011000E7010008E7010008E7010008E70100081F
:10012000E7010008E7010008E7010008E70100080F
:1001300000F002F800F03AF80AA090E8000C8244BF
:100140008344AAF10107DA4501D100F02FF8AFF29C
:10015000090EBAE80F0013F0010F18BFFB1A43F0A5
:1001600001031847480E0000680E0000103A24BF33
:1001700078C878C1FAD8520724BF30C830C144BF0C
:1001800004680C607047000000230024002500264E
:10019000103A28BF78C1FBD8520728BF30C148BFEA
:1001A0000B6070471FB51FBD10B510BD00F031F8D2
:1001B0001146FFF7F7FF00F099FD00F04FF803B488
:1001C000FFF7F2FF03BC00F053F800000948804736
:1001D00009480047FEE7FEE7FEE7FEE7FEE7FEE729
:1001E000FEE7FEE7FEE7FEE704480549054A064B41
:1001F000704700000D080008310100089000002041
:100200009006002090020020900200207047704766
:100210007047754600F028F8AE460500694653461B
:1002200020F00700854618B020B5FFF7DDFFBDE8D8
:1002300020404FF000064FF000074FF000084FF04D
:10024000000B21F00701AC46ACE8C009ACE8C009DE
:10025000ACE8C009ACE8C0098D4670470446AFF36E
:1002600000802046FFF7ABFF004870472C000020BD
:1002700001491820ABBEFEE726000200704700BF10
:10028000FEE7000010B500241548006820F4704017
:10029000134908600846006840F40040086004E024
:1002A000601CC4B2012000F0CBFC0E48006808B10D
:1002B000642CF5DB642C01DB012010BD002404E07C
:1002C000601CC4B2012000F0BBFC0648006808B9FD
:1002D000642CF5DB642C01DB0120EEE70020ECE769
:1002E000040801402C01214208B50121042000F03E
:1002F00087F94FF40060ADF8000010208DF803007E
:1003000003208DF802006946064800F097F84FF484
:100310000061044800F028F900F068F8FFF7B2FF28
:1003200008BD00000008014010B5002404E0601C76
:10033000C4B2012000F084FC0D48006808B1642CB0
:10034000F5DB002404E0601CC4B2012000F078FC5E
:100350000748006808B9642CF5DB282000F070FC21
:100360000348006808B1012010BD0020FCE7000030
:100370002C01214270B50024002506E06006040E21
:10038000FFF7D2FF0443681CC5B2082DF6DB2046F8
:1003900070BD7CB505460E4600F028F8FFF772FFE9
:1003A000F8B9002405E0FFF7E5FF0DF80400601C34
:1003B000C4B2052CF7DB9DF800009DF8011008443D
:1003C0009DF8021008449DF8031008449DF804109D
:1003D000884208D19DF8000030709DF80200287016
:1003E00001E001207CBD0020FCE7000010B50C48B6
:1003F000006820F470400A4908600846006840F42C
:1004000040500860002007490860142000F0F2FB0B
:1004100001200549C1F8AC011E2000F011FC10BDFF
:1004200004080140AC012142000021427047000055
:100430000149086070470000140401402DE9F041B3
:10044000024600250026002000230024002791F802
:1004500003C00CF00F0591F803C00CF0100CBCF1B8
:10046000000F03D091F802C04CEA050591F800C0D6
:10047000BCF1000F31D0146800202BE04FF0010CCC
:100480000CFA00F3B1F800C00CEA03069E4220D13A
:1004900083004FF00F0C0CFA03F7BC4305FA03FC82
:1004A0004CEA040491F803C0BCF1280F06D14FF0C8
:1004B000010C0CFA00FCC2F814C00AE091F803C069
:1004C000BCF1480F05D14FF0010C0CFA00FCC2F84A
:1004D00010C0401C0828D1D31460B1F800C0BCF192
:1004E000FF0F34DD546800202EE000F1080C4FF0BF
:1004F000010808FA0CF3B1F800C00CEA03069E42AA
:1005000021D183004FF00F0C0CFA03F7BC4305FA1E
:1005100003FC4CEA040491F803C0BCF1280F05D198
:1005200000F1080C08FA0CF8C2F8148091F803C026
:10053000BCF1480F07D100F1080C4FF0010808FA90
:100540000CF8C2F81080401C0828CED35460BDE8D7
:10055000F0810246002093680B400BB1012000E0BF
:1005600000207047416170470161704700BFFEE79E
:1005700000BFFEE77047000070B5002100230F2286
:10058000C47804B3154C246804F4E064C4F5E06452
:10059000210AC1F10403CA40447804FA03F18478C3
:1005A0001440214309010E4C0678A155047804F04B
:1005B0001F050124AC4005786D11AD0005F1E02563
:1005C000C5F8004109E0047804F01F050124AC409F
:1005D000044D0678761145F8264070BD0CED00E01C
:1005E00000E400E080E100E002490143024A1160BA
:1005F000704700000000FA050CED00E070470000B5
:1006000029B1064A92690243044B9A6104E0034A05
:1006100092698243014B9A617047000000100240CA
:1006200030B500210022002400232D4D6D6805F017
:100630000C0121B1042905D0082923D105E0294D59
:10064000056022E0274D05601FE0254D6D6805F42B
:100650007012234D6D6805F48034022505EB92423B
:100660001CB9214D554305600BE01D4D6D6805F427
:1006700000351DB11C4D5543056002E0194D554331
:10068000056002E0174D056000BF00BF144D6D68A6
:1006900005F0F0010909154D6B5C0568DD4045600A
:1006A0000F4D6D6805F4E061090A104D6B5C4568FB
:1006B000DD4085600A4D6D6805F46051C90A0B4D37
:1006C0006B5C4568DD40C560054D6D6805F44041D3
:1006D000890B074D6B5CC568B5FBF3F5056130BD53
:1006E0000010024000127A0000093D0014000020B2
:1006F00024000020704710B500F002F810BD000083
:100700000CB50020019000903348006840F4803020
:100710003149086000BF3048006800F400300090A4
:100720000198401C0190009818B90198B0F5A06F8D
:10073000F1D12948006800F4003010B10120009088
:1007400001E0002000900098012843D12348006870
:1007500040F01000214908600846006820F00300BE
:1007600008600846006840F0020008601A484068C7
:10077000194948600846406848600846406840F4A7
:10078000806048600846406820F47C104860084655
:10079000406840F4E81048600846006840F0807007
:1007A000086000BF0C48006800F000700028F9D015
:1007B0000948406820F0030007494860084640683F
:1007C00040F00200486000BF0348406800F00C00A1
:1007D0000828F9D10CBD00000010024000200240A2
:1007E000042808D14FF0E021096941F004014FF0DD
:1007F000E022116107E04FF0E021096921F00401D6
:100800004FF0E022116170477047000010B51348A7
:10081000006840F00100114908600846406810492E
:1008200008400E494860084600680E4908400B49D8
:1008300008600846006820F4802008600846406888
:1008400020F4FE0048604FF41F008860FFF753FF5C
:100850004FF000600449086010BD00000010024025
:100860000000FFF8FFFFF6FE08ED00E010B540F2D3
:1008700025511C4800F0A9F890B32520FFF7D8FDBA
:10088000184800F05DF9C4B2312C08D14FF4006172
:100890001548FFF767FE4FF4967000F0ABF9322C65
:1008A00008D14FF400611048FFF75EFE4FF49670D8
:1008B00000F0A0F9332C08D14FF480610A48FFF70B
:1008C00051FE4FF4967000F095F9342C08D14FF496
:1008D00080610548FFF748FE4FF4967000F08AF9F2
:1008E00010BD000000380140000C014010B586B07A
:1008F000044601210420FFF783FE01218803FFF74E
:100900007FFE18208DF817004FF40070ADF814002A
:1009100001208DF8160005A91D48FFF78FFD042062
:100920008DF817000002ADF8140001208DF81600B4
:1009300005A91748FFF782FD01940020ADF81000CB
:100940000C20ADF80E000020ADF80C00ADF80A0048
:10095000ADF8080001A90F4800F086F801210D4804
:1009600000F01AF8012240F225510A4800F057F829
:1009700025208DF8000003208DF801008DF802007D
:1009800001208DF803006846FFF7F6FD06B010BDA4
:10099000000801400038014021B1828942F4005230
:1009A000828104E082894DF6FF731A40828170478C
:1009B00002460020B1F5007F00D100BF13880B4034
:1009C0000BB1012000E00020704770B50246002402
:1009D00000230025002040F66A16B14200D100BF76
:1009E000C1F3421501F01F03012606FA03F3012D9E
:1009F00002D19689334006E0022D02D1168A334097
:100A000001E0968A33400C12012606FA04F4168897
:100A1000344013B10CB1012000E0002070BDF0B5EE
:100A20000346002400260025002040F66A17B9423C
:100A300000D100BF1846C1F3421401F01F06012780
:100A400007FA06F5012C01D10C3004E0022C01D18B
:100A5000103000E014301AB107682F43076002E03D
:100A60000768AF430760F0BD2DE9F04786B0054643
:100A70000E460024A24600BFA1460027B08900B15F
:100A800000BF2F462C8A4CF6FF700440F0880443C8
:100A90002C82AC894EF6F3100440B08831890843AB
:100AA000718908430443AC81AC8A4FF6FF4004408F
:100AB000B0890443AC8201A8FFF7B2FD1F4887420A
:100AC00002D1DDF810A001E0DDF80CA0A88900F447
:100AD000004040B10AEBCA0000EB0A10316849003F
:100AE000B0FBF1F807E00AEBCA0000EB0A1031682E
:100AF0008900B0FBF1F86420B8FBF0F00401200994
:100B0000642101FB1089A88900F4004040B1322023
:100B100000EBC900B0FBF1F000F00700044308E06F
:100B2000322000EB09106421B0FBF1F000F00F005F
:100B300004432C8106B0BDE8F08700000038014076
:100B400001468888C0F30800704700002DE9F04195
:100B500007460D46164600240CE0295D384600F095
:100B60000FF800BF40210548FFF722FF0128F9D107
:100B7000601CC4B2B442F0DBBDE8F0810038014033
:100B800070B504460D462946204600F00BF800BF1C
:100B900040210348FFF70CFF0128F9D170BD000088
:100BA00000380140C1F308028280704700BFFEE7B1
:100BB00010B56FF00400FFF713FE0A4800680A49F9
:100BC000B0FBF1F0094908700846007800EB4001DD
:100BD000C1EBC0104FF6FF7101EAC0000449088064
:100BE00010BD00000000002000127A002800002044
:100BF0002A0000200146114A12884A434FF0E023A0
:100C00005A6100229A611A46126942F001021A6181
:100C100000BF4FF0E022106900F001021AB100F4A9
:100C20008032002AF5D04FF0E022126922F0010252
:100C30004FF0E0231A6100229A6170472A000020D9
:100C40000146114A12784A434FF0E0235A610022CC
:100C50009A611A46126942F001021A6100BF4FF010
:100C6000E022106900F001021AB100F48032002A7B
:100C7000F5D04FF0E022126922F001024FF0E0239C
:100C80001A6100229A6170472800002008B50121EE
:100C90000820FFF7B5FC4FF4F840ADF80000102035
:100CA0008DF8030003208DF8020069460E48FFF717
:100CB000C5FB4FF480610C48FFF756FC4FF4006110
:100CC0000948FFF751FC4FF480510748FFF74CFCEF
:100CD0004FF400510448FFF747FC4FF480410248AD
:100CE000FFF742FC08BD0000000C01401FB50025C5
:100CF0000026A846A9460027FFF75AFF4FF4A06038
:100D0000FFF772FCFFF754FFFFF7C0FFFFF7ECFAA5
:100D10004FF4E130FFF7EAFD00F016F90CE1002096
:100D20000090019003900290642094FBF0F100FB8E
:100D30001140B8B902A903A8FFF72BFB54208DF886
:100D400000009DF80C008DF8010048208DF802008D
:100D50009DF808008DF80300042269467748FFF7E4
:100D6000F5FE00240A20FFF745FF601CC4B20221F3
:100D70007348FFF7EEFB18BB0A20FFF73BFF022189
:100D80006F48FFF7E6FB48BB5DB946216B48FFF7AC
:100D900009FF00BF40216948FFF70AFE0128F9D189
:100DA00001254FF480516748FFF7DCFB4FF4967044
:100DB000FFF720FF4FF480516248FFF7D5FB0DE0AD
:100DC000012D0BD166215D48FFF7ECFE00BF4021ED
:100DD0005A48FFF7EDFD0128F9D100254FF4806155
:100DE0005848FFF7BFFB4FF480415648FFF7BAFB66
:100DF00040F6B830FFF7FEFE4FF480615148FFF730
:100E0000B3FB4FF480414F48FFF7AEFB04214C4841
:100E1000FFF79FFB70BB0A20FFF7ECFE0421484858
:100E2000FFF797FB00283ED1AEB94D214348FFF7AD
:100E3000A7FE00BF40214148FFF7BAFD0128F9D1C4
:100E4000012647B981023F48FFF78CFB4FF49670AB
:100E5000FFF7D0FE01274FF400513A48FFF782FB1D
:100E60004FF49670FFF7C6FE4FF400513548FFF778
:100E70007BFB18E0012E16D16D213048FFF780FE74
:100E800000BF40212D48FFF793FD0128F9D100262E
:100E9000012F08D181022B48FFF766FB4FF49670B3
:100EA000FFF7A8FE002701212548FFF752FB012884
:100EB0001CD10A20FFF79EFE01212148FFF749FBC4
:100EC000012815D108211E48FFF743FB01280FD147
:100ED000B8F1000F0CD181031A48FFF743FB4FF420
:100EE0009670FFF787FE4FF0010801E04FF0000811
:100EF00001211348FFF72DFBD8B90A20FFF77AFE2E
:100F000001210F48FFF725FBA8B908210C48FFF77E
:100F100020FB80B9B9F1000F0DD14FF48041094891
:100F2000FFF722FB4FF49670FFF764FE4FF00109C4
:100F300001E04FF0000900BFF1E600000038014079
:100F400000100140000C014008B501211020FFF7FE
:100F500057FB0720ADF8000048208DF80300032060
:100F60008DF8020069461048FFF768FA0820ADF8CE
:100F7000000028208DF8030003208DF80200694648
:100F80000948FFF75BFA01210748FFF7EDFA022154
:100F90000548FFF7E9FA04210348FFF7E5FA0821BD
:100FA0000148FFF7E1FA08BD00100140CC0F00082E
:100FB000000000202C0000006C010008F80F000861
:100FC0002C000020640600008801000800A24A04EA
:100FD00000000000000000000102030406070809E9
:100FE00000000000010203040102030406070809CF
:080FF0000204060800000000E5
:0400000508000131BD
:00000001FF
